:020000040800F2
:1000000000000320A916000855160008591600081C
:100010005D16000861160008651600080000000063
:100020000000000000000000000000006916000849
:100030006D16000800000000711600087516000813
:10004000F9160008F9160008F9160008F916000854
:10005000F9160008F9160008F9160008F916000844
:10006000F9160008F9160008F9160008F916000834
:10007000F9160008F9160008F9160008F916000824
:10008000F9160008F9160008F9160008F916000814
:1000900079160008F9160008F9160008F916000884
:1000A000F9160008F9160008F9160008F9160008F4
:1000B000F9160008F9160008F9160008F9160008E4
:1000C000F9160008F9160008F9160008F9160008D4
:1000D000F9160008F9160008F9160008F9160008C4
:1000E000F9160008F9160008F9160008F9160008B4
:1000F000F9160008F9160008F9160008F9160008A4
:10010000F9160008F9160008F9160008F916000893
:10011000F9160008F9160008F9160008F916000883
:10012000F9160008F9160008F9160008F916000873
:10013000F9160008F9160008F9160008F916000863
:10014000F9160008F9160008F9160008F916000853
:10015000F9160008F9160008F9160008F916000843
:10016000F9160008F9160008F9160008F916000833
:10017000F9160008F9160008F9160008000000003A
:10018000F9160008F9160008F9160008F916000813
:10019000F9160008F9160008F9160008F916000803
:0C01A0000000000000000000F91600083C
:1001AC0010B5054C237833B9044B13B10448AFF3A5
:1001BC0000800123237010BD3401002000000000DA
:1001CC00482A000808B5034B1BB103490348AFF399
:1001DC00008008BD0000000038010020482A0008FB
:1001EC0053B94AB9002908BF00281CBF4FF0FF3192
:1001FC004FF0FF3001F0F6B8ADF1080C6DE904CE0C
:10020C0000F006F8DDF804E0DDE9022304B07047E5
:10021C002DE9F047089D0C46002B4ED194468C4599
:10022C008646B2FA82F262D94AB1C2F120039140F9
:10023C0020FA03F30CFA02FC194300FA02FE4FEA0F
:10024C001C471FFA8CF6B1FBF7F44FEA1E4307FB71
:10025C00141143EA014304FB06F199420AD91CEB41
:10026C00030304F1FF3080F01281994240F20F81B8
:10027C00023C6344591A1FFA8EF3B1FBF7F007FBEB
:10028C00101143EA014300FB06F69E420AD91CEB0F
:10029C00030300F1FF3180F0FC809E4240F2F980B4
:1002AC00634402389B1B40EA044000211DB1D3403B
:1002BC000022C5E90032BDE8F0878B4205D90DB1AB
:1002CC00C5E9000100210846F5E7B3FA83F10029DE
:1002DC0046D1A34202D39042C0F0F080861A64EB60
:1002EC0003030120002DE6D0C5E90063E3E7002AF3
:1002FC0040F09080A1EB0C044FEA1C481FFA8CF7DD
:10030C000121B4FBF8F64FEA1E4308FB164443EAFE
:10031C00044307FB06F0984208D91CEB030306F1D3
:10032C00FF3402D2984200F2CD8026461C1A1FFAE6
:10033C008EF3B4FBF8F008FB104443EA044300FBD3
:10034C0007F79F4208D91CEB030300F1FF3402D2DC
:10035C009F4200F2B0802046DB1B40EA0640A5E736
:10036C00C1F120068B4022FA06F71F4320FA06FC47
:10037C0004FA01F343EA0C03F44000FA01F8380CD8
:10038C004FEA1349B4FBF0FE1FFA87FC00FB1E4436
:10039C0049EA04440EFB0CF9A14502FA01F20AD910
:1003AC003C190EF1FF3A80F08480A14540F2818027
:1003BC00AEF1020E3C44A4EB09041FFA83F9B4FB22
:1003CC00F0F300FB134449EA044403FB0CFCA44582
:1003DC0007D93C1903F1FF3067D2A44565D9023B1C
:1003EC003C4443EA0E40A0FB0293A4EB0C049C4259
:1003FC00CE469C4651D34ED055B1B8EB0E0364EBB0
:10040C000C0404FA06F6CB401E43CC40C5E900644C
:10041C00002150E7C2F1200320FA03F10CFA02FC90
:10042C0024FA03F394400C434FEA1C4800FA02FEF2
:10043C001FFA8CF7B3FBF8F008FB1031230C43EADE
:10044C00014300FB07F1994208D91CEB030300F1AF
:10045C00FF362CD299422AD9023863445B1AA4B2D3
:10046C00B3FBF8F108FB113344EA034401FB07F337
:10047C00A34208D91CEB040401F1FF3613D2A342AA
:10048C0011D902396444E41A41EA004139E70446BF
:10049C00F0E6084606E7C845AED2B9EB020E63EBB0
:1004AC00070C0138A8E73146EDE7034699E73046DB
:1004BC00D4E7D6467FE7634402384DE70646234629
:1004CC0008460FE7023E634430E700BF03685A005A
:1004DC004CBF43F0004323F000431844704700BF67
:1004EC002DE9F84349B34F1E044615463E464FF0DE
:1004FC00000909EB060101EBD171491004EBC108AD
:10050C004046FFF7E3FF8F4203464FEAC1000FD08E
:10051C000830AB42204407D8FFF7D8FF0138A84277
:10052C0008D201F10109E4E7894506D04E1EE0E747
:10053C00AB42F9D84046BDE8F8834FF0000840467E
:10054C00BDE8F883012807D0022807D0044B002807
:10055C000CBF18460020704702487047024870478D
:10056C00190C00081D0C0008210C000830B5214B9B
:10057C0083B004468D1E1BB301A92846AFF300803F
:10058C0088B301992A46FFF7ABFF014658B3FFF732
:10059C009DFF4B68A064012B28D0002B01F10400B7
:1005AC001FDBFFF793FF002323650368E064002B38
:1005BC000DDBFFF78BFF03460020236103B030BD3A
:1005CC000D4B0E49C91AC91018460191DAE7C3F34D
:1005DC000360FFF7B7FF034628B10020236103B087
:1005EC0030BD0123E0E700230920E6E700230520C6
:1005FC00E3E700BF00000000C82A0008902B0008A9
:10060C000368DA0710B5044606D49B0700F14800CE
:10061C0009D500F069FC2368590709D51A070ED5CE
:10062C00DB0613D510BD00F057FC23685907F5D431
:10063C0004F1D00000F060FC23681A07F0D404F534
:10064C00A87000F061FC2368DB06EBD404F5E870BD
:10065C00BDE8104000F09CBC0920704703460068C0
:10066C0000B11844704700BF704700BF70B5044616
:10067C000E46316C2046FFF779FF054688B9326C7F
:10068C006261236932462146012098470828F0D040
:10069C00072806D12846316CFFF7E6FF301D00F025
:1006AC000FFC02F0E1F800BF2DE9F0470D1DD0F86A
:1006BC000C80D0F81890074614460FCDADF5727D1E
:1006CC000DF10C0CACE80F000FCDACE80F000FCD0A
:1006DC00ACE80F0095E80F0002AE4FF0000E8CE86E
:1006EC000F00C6F800E020E0336C7B614FF4F07231
:1006FC0031467AA802F030F93B697AAA394650465D
:10070C009847889B73642146CDE9006905463B46B2
:10071C003A460120C047044618BB4FF4F0727AA940
:10072C00304602F019F9082D19D1316C3846FFF713
:10073C001DFF09345FFA84FA05460028D4D0B36B48
:10074C0073643A46CDE900693B464AF0100101203A
:10075C00C04730B928460DF5727DBDE8F087072DEE
:10076C0005D0092528460DF5727DBDE8F087204699
:10077C00316CFFF779FF03A800F0A2FB406C7047C7
:10078C00F0B5CB6B0B6401F1040C0E460546BCE8CE
:10079C000F00F9B001AC0FC4BCE80F000FC4BCE8EB
:1007AC000F000FC49CE80F004FF0FF3784E80F00D8
:1007BC00009706E02B696A462946984708280446A4
:1007CC0008D110992846FFF7D1FE0028F2D0092055
:1007DC0079B0F0BD6846FFF713FF062CF7D1314610
:1007EC002846FFF743FF00BFC160D96B82611964D3
:1007FC000022194658E700BF70B5C66843690B6400
:10080C00AEB903690A4604460D46014602209847D4
:10081C00072805D008280FD129462046FFF726FFC8
:10082C003046296CFFF720FF281D00F049FB012200
:10083C00FFF73AFF02F018F802F016F8C2681AB186
:10084C00CA6B0A6400222FE79AE700BF704700BF0B
:10085C00836801460BB1012018477047012910D05D
:10086C0009D883B90F2A0ED800EB820218465368B8
:10087C00009A13607047033901298CBF02200120B4
:10088C007047084670470220704700BF00B585B01E
:10089C000A46002303A900911946FFF7DFFF0398CE
:1008AC0005B05DF804FB00BF012910D009D883B94D
:1008BC000F2A0ED8009900EB820209685160184685
:1008CC007047033901298CBF02200120704708466C
:1008DC0070470220704700BF10B584B0002303ACF2
:1008EC00039200940A461946FFF7DEFF04B010BDD0
:1008FC0070B5D36B136402F1040C05460C46BCE8CE
:10090C000F00ADF50E7D0DF15C0EAEE80F00BCE8EE
:10091C000F00AEE80F00BCE80F00AEE80F009CE83B
:10092C000F004FF0FF368EE80F00169610E0FFF721
:10093C00D3FF214616A8A847034616AA69460820E5
:10094C0083B9049B9847052806460CD0092809D082
:10095C0026996846FFF70AFE03466A460C2116A83C
:10096C00002BE4D0092616A8FFF74AFE30460DF5F9
:10097C000E7D70BD2DE9F04F9346CA6C89B00D46C3
:10098C0052F8041B069200F0030C002B79D00C0CCF
:10099C008DF81D400904E4B2059102EB840202219A
:1009AC002F6D8DF81C10BCF1020F08BFAA6B17F04D
:1009BC0001070CD005A9584600F084FB18B9082093
:1009CC0009B0BDE8F08F092009B0BDE8F08F1668BA
:1009DC00002EEFD000F008010191B2460297644658
:1009EC009946B9F1020F48D0B2F800A0568802F12E
:1009FC000408AA6C26F001030F2158469F18FFF734
:100A0C0045FF874237D82AF001023A44824294BF0C
:100A1C0000220122730003F002030AF0010A43EAE8
:100A2C000A03012B47D0022B31D0002BCBD114B1B0
:100A3C00002A40F0C98008F10402D2F800A0BAF1F3
:100A4C00000FCED105A95846029F00F03BFB0028B1
:100A5C00B9D1002FB3D00F215846FFF717FF0E2145
:100A6C0002465846FFF738FF674A0F215846FFF7F2
:100A7C0033FF0720A8E70022CCE7566802F10808EC
:100A8C00B7E7090205918DF81D30032188E7D8F8E6
:100A9C00006026F00043002C44D122B1019A002AB8
:100AAC005AD0002B58D0002E01DA08F1040801337B
:100ABC0008EB8302C1E7ECB9CAB1D8F80430D8F816
:100ACC000020991C4FEAD2723FF47DAF05F158011A
:100ADC000133049100F08B8008F10400FFF7BEFD98
:100AEC0004AB01462846AFF30080002857D108F12B
:100AFC000802A2E70D215846FFF7C8FE2B6A834275
:100B0C00F5D1AB6A9845F2D14046FFF7DFFC0F21D7
:100B1C0002465846FFF7E0FE2A4600215846FFF7EA
:100B2C00DBFEA6E70D2158460393FFF7AFFE2A6ABA
:100B3C00039B8242B7D1AA6A9045B4D10027042204
:100B4C00C5E90B724244AB626A63D8F80020BA4222
:100B5C0055DB01220292AAE7039408F1040A00264D
:100B6C0005F158071C460DE050460497FFF776FD3B
:100B7C000022014604AB284601360AF1040AAFF301
:100B8C000080E0B9A642EFD10D215846FFF77EFE5A
:100B9C00049BC5F82880C5E90803062014E7044621
:100BAC000D215846FFF772FE049E2862022C04BFEA
:100BBC00EE6205F12C06C5E90968062004E7234618
:100BCC00D8F80060039C6EE74046FFF77FFC08F105
:100BDC0004020446AA632846AFF3008000283FF4C1
:100BEC00F2AE22460F215846FFF776FE41E70C463F
:100BFC0058460D21FFF74AFE26462862DBE7581CB3
:100C0C0008EB800081E700BF000000000023B1E684
:100C1C000123AFE60223ADE62DE9F0430646C3B04F
:100C2C0015461C46042900F2D180DFE801F0AC51D6
:100C3C00CF2A0300002C40F0C980102A00F2C68095
:100C4C000368DC0600F1E78020AF384600F0AAF913
:100C5C00B46B394600234FF0010C0CFA03F22A4214
:100C6C00204603F1010303D050F8042B0A6004461C
:100C7C00042B01F10401F0D1B463384600F088F97B
:100C8C0099E0032C40F0A28094B204EB1243102B99
:100C9C004FEA124500F29A8003681F0700F1C380E7
:100CAC0020AF384600F052F9B26B07EBC50154B1D6
:100CBC000B46D01A01EBC401E4001D5843F8045B49
:100CCC008B42FAD12244B263384600F01DF972E02F
:100CDC00012C4FEA124895B271D0052C76D108EB55
:100CEC000509B9F1200F71D8B8F10F0F72D8B9F10D
:100CFC00100F036800F29F80D90708D523F0010379
:100D0C00304643F0020340F8483B00F0F1F820AFC6
:100D1C00384600F0EDF8B36B002D00F0B9806D0093
:100D2C006A1E07EBC80100250132043903EB82026D
:100D3C0053F8040B41F8040F9342F9D1002D00F045
:100D4C00A1804146102938BF10216B0010396F4625
:100D5C00013B07EBC1010133043902EB830352F869
:100D6C00040B41F8040F9A42F9D1012C00F0888051
:100D7C00B8F10F0FB26302D820A800F0B5F83846CE
:100D8C0000F0BAF817E00CBB806B23461FFA82FC0C
:100D9C000124371D04FA03F111EA0C0F024604D0AA
:100DAC0052F8041B47F8231010460133102BF1D1D5
:100DBC00AC0400D4B063002043B0BDE8F08308EB72
:100DCC000503102B02D8B8F1100F14D1022043B038
:100DDC00BDE8F083002DEED003685A075CD46F4653
:100DEC00384600F08DF8B26B6B00A8F11001013B96
:100DFC0007EBC101AFE70368DA0759D420AF3846D7
:100E0C0000F06EF8B36B002D89D10433B363384610
:100E1C0000F062F8CFE723F01003036000F5E870F0
:100E2C0000F0C0F810E723F00803036000F5A87089
:100E3C0000F08CF834E7D90708D523F0010343F010
:100E4C00020340F8483B00F053F83368580706D5C6
:100E5C00304623F0040340F8D03B00F051F820AFAB
:100E6C00384600F045F8684600F04AF8C8F1100220
:100E7C005200B36BA9F11005013A07EBC80153E717
:100E8C0020AFC2E7012CC0D0B8F10F0FB36392D8DA
:100E9C00384600F029F88EE723F0040340F8D03BE5
:100EAC006F4600F02DF8384600F02AF8B26B9BE73D
:100EBC00304623F0030340F8483B00F011F89DE75F
:100ECC0000F1340191E838009C46A6464CF8045DCC
:100EDC0090E8FF0FE54600BD90EC210B704700BF7A
:100EEC0080EC210B704700BF90EC200B704700BFCB
:100EFC0080EC200B704700BFD0EC200B704700BF7C
:100F0C00C0EC200B704700BFF0EC0201F0EC0211BA
:100F1C00F0EC0221F0EC0231F0EC0241F0EC025169
:100F2C00F0EC0261F0EC0271F0EC0281F0EC029159
:100F3C00F0EC02A1F0EC02B1F0EC02C1F0EC02D149
:100F4C00F0EC02E1F0EC02F1704700BFE0EC0201C2
:100F5C00E0EC0211E0EC0221E0EC0231E0EC0241A9
:100F6C00E0EC0251E0EC0261E0EC0271E0EC028199
:100F7C00E0EC0291E0EC02A1E0EC02B1E0EC02C189
:100F8C00E0EC02D1E0EC02E1E0EC02F1704700BFD2
:100F9C00B0FC0181B0FC0191B0FC01A1B0FC01B12D
:100FAC00704700BFA0FC0181A0FC0191A0FC01A135
:100FBC00A0FC01B1704700BFEC4600B52DE9005014
:100FCC002DE9FF1F4FF000032DE90C0001A9FFF7DD
:100FDC00D7FBDDF840E012B0704700BFEC4600B51F
:100FEC002DE900502DE9FF1F4FF000032DE90C00F7
:100FFC0001A9FFF701FCDDF840E012B0704700BF1B
:10100C00EC4600B52DE900502DE9FF1F4FF0000311
:10101C002DE90C0001A9FFF711FCDDF840E012B03E
:10102C00704700BFEC4600B52DE900502DE9FF1FBD
:10103C004FF000032DE90C0001ABFFF7D5FBDDF8F9
:10104C0040E012B0704700BFEC4600B52DE90050EF
:10105C002DE9FF1F4FF000032DE90C0001AAFFF74B
:10106C0047FCDDF840E012B0704700BF027A03463F
:10107C007AB9427AA2B14168013A10B44272086856
:10108C0003220C1D1A7202025C60000E10BC1A6066
:10109C0070470068013A1A7202021A60000E70471B
:1010AC00B020704700B585B0002303AA0092194602
:1010BC000C22FFF7D3FB039805B05DF804FB00BFCF
:1010CC00F0E700BF2DE9F043064685B00D464FF022
:1010DC0000082846FFF7CAFFB028044600F0DA8063
:1010EC00070646D500F0F003802B5ED0B02B73D0F2
:1010FC001BD8902B00F09B80A02B12D1C34303F084
:10110C0007034FF47F621A41010702F47F6201D595
:10111C0042F48042002319463046FFF77DFD00283B
:10112C00D7D0092005B0BDE8F083C02B6DD1C628FF
:10113C0000F09380C72800F0B28000F0F803C02BB9
:10114C0000F0D280C82800F0DD80C928E9D12846FB
:10115C00FFF78CFF020300F00F0002F47022013045
:10116C000243012105233046FFF756FD0028B0D07D
:10117C00D7E78300DBB21F1D0DF10C0900231946C4
:10118C00CDF800900D223046FFF768FB039BCDF89D
:10119C00009060064CBFDF1BFF1800230D22194680
:1011AC0030460397FFF780FB93E72846FFF75EFF77
:1011BC0024022043B0F5004FB3D004010023A2B2A7
:1011CC0019463046FFF728FD0028AAD114F4004F29
:1011DC0018BF4FF001087CE7B12851D0B22800F0BD
:1011EC00AD80B3286DD000F0FC03B42B99D000F087
:1011FC0007020132012342F4002219463046FFF760
:10120C000BFD00283FF465AF8BE700F0F803D02B03
:10121C0087D100F007020132052342F4002201219C
:10122C003046FFF7F9FC00283FF453AF79E700F0A4
:10123C000D030D2B3FF475AF03AF002300F00F022D
:10124C00194600973046FFF709FB002300970D2243
:10125C0019463046FFF728FB3BE72846FFF706FF09
:10126C00020300F00F00013002F47022032302434A
:10127C0019463046FFF7D0FC00283FF42AAF50E760
:10128C002846FFF7F3FE431EDBB20E2B02467FF619
:10129C0041AF46E7B8F1000F40D0002042E72846A6
:1012AC00FFF7E4FE431EDBB20E2B02463FF639AFCE
:1012BC00002304213046FFF7AFFC00283FF409AFB0
:1012CC002FE72846FFF7D2FE020300F00F00013093
:1012DC0002F470220123024319463046FFF79CFCAE
:1012EC0000283FF4F6AE1CE700F00F020132032396
:1012FC0042F4202219463046FFF78EFC00283FF4BA
:10130C00E8AE0EE72846FFF7B1FE00F0F00200F061
:10131C000F031032013343EA023222E703AC434697
:10132C0041460E2200943046FFF798FA009443464B
:10133C000F2241463046FFF7B7FAAEE700230DF116
:10134C000C090D221946CDF800903046FFF786FAAD
:10135C002846FFF78BFE0206039C4FF002070BD5C5
:10136C0000F07F00B840044428460394FFF77EFE4B
:10137C00030607F10707F3D400FA07F204F501742A
:10138C00224400230392CDF800900D2219463046DA
:10139C00FFF78AFA9DE600BF10B5C26C536884B0A3
:1013AC004FF0030C08321C0208461B0E01A90194D5
:1013BC0002928DF80CC08DF80D30FFF783FE04B04F
:1013CC0010BD00BF08B5FFF77BFE806C08BD00BFE9
:1013DC0008B5FFF775FEC06CC379023300EB8300D0
:1013EC0008BD00BF704700BF0D480E49032210B561
:1013FC000023C0E900124FF4E0244FF4A0014FF099
:10140C000122C0E90233C0E904418261838300F008
:10141C00BFF900B910BDBDE8104000F0F7B800BF2F
:10142C00500100200064004030B51C4B026889B0AC
:10143C0000249A42CDE90244CDE90444069401D03B
:10144C0009B030BD03F5EA3300941A6C144842F02D
:10145C0000721A641A6C02F000720092009A0194E5
:10146C001A6B42F008021A631B6B03F0080301931A
:10147C0003220223CDE9022302A909230322CDE989
:10148C000523019D00F098FD22462146142000F012
:10149C0031FD142000F06AFD09B030BD006400403D
:1014AC00000C024084B0114B00220192196B41F0E8
:1014BC0001011963196B01F001010191019902926B
:1014CC00196B41F008011963196B01F008010291C5
:1014DC00029903921A6B42F080021A631B6B03F0A1
:1014EC0080030393039B04B0704700BF0038024095
:1014FC0030B5002395B0CDE90A33CDE90C33CDE9F5
:10150C000333CDE90533244901930793086C234A2F
:10151C0040F080500864096C01F0805101910199F0
:10152C000293136843F440431360136801204FF493
:10153C00803103F44043CDE9080102934FF480015C
:10154C000224CDE90E41029804210220CDE91201BA
:10155C000622B42308A81092119300F0A1FE08B142
:10156C0072B6FEE700F060FE034608B172B6FEE705
:10157C000F22CDE903244FF4A0554FF4805203A859
:10158C000521CDE90535079201F0A0F808B172B636
:10159C00FEE715B030BD00BF0038024000700040BF
:1015AC0000B5184C93B000F0C7F8FFF7A1FFFFF798
:1015BC0079FFFFF719FF00230122CDE90133CDE9B3
:1015CC000B33CDE90D33CDE90F33CDE90333119353
:1015DC0000920FCC0DF1140CACE80F0094E8030052
:1015EC00094C8CE8030001A90BA801F00DF94FF090
:1015FC00503303AA694605A8CDE9034301F02CF941
:10160C00FEE700BF602A00085000505072B6FEE79B
:10161C0082B00C4B002100915A6C42F480425A6407
:10162C005A6C02F480420092009A01911A6C42F0BA
:10163C0080521A641B6C03F080530193019B02B01F
:10164C00704700BF00380240FEE700BFFEE700BF56
:10165C00FEE700BFFEE700BFFEE700BF704700BF1C
:10166C00704700BF704700BF00F080B8014800F021
:10167C00D1BA00BF500100200120704708B501F01D
:10168C003FF9162303604FF0FF3008BD08B501F099
:10169C0037F916230360FEE7704700BFDFF834D03C
:1016AC000D480E490E4A002302E0D458C4500433AE
:1016BC00C4188C42F9D30B4A0B4C002301E0136085
:1016CC000432A242FBD3FFF7E7FF01F01FF9FFF74B
:1016DC0067FF704700000320000000203401002049
:1016EC009C2B00083401002050040020FEE7000071
:1016FC0038B50E4A0E4B12781B6805464FF47A70BB
:10170C00B0FBF2F0B3FBF0F000F03EFC08B90F2D8B
:10171C0001D9012038BD0446024629464FF0FF305E
:10172C0000F0E8FB034B20461D6038BD0400002090
:10173C00000000200800002008B50B4B1A6842F48A
:10174C0000721A601A6842F480621A601A6842F4D5
:10175C0080721A60032000F0BBFB0F20FFF7C8FF5C
:10176C00FFF756FF002008BD003C0240034A044B23
:10177C0011681B780B441360704700BF7801002080
:10178C0004000020014B1868704700BF780100204E
:10179C0000287BD038B590F820300446002B72D04E
:1017AC002268136843F001031360FFF7EBFF054653
:1017BC0004E0FFF7E7FF401B0A285BD823685A6850
:1017CC00D107F6D51A6822F002021A60FFF7DAFF89
:1017DC00054604E0FFF7D6FF401B0A284AD82368C9
:1017EC005A689207F6D4227E012A1A680CBF42F07E
:1017FC00800222F080021A60627E012A1A680CBFF5
:10180C0042F0400222F040021A60A27E012A1A68BD
:10181C000CBF42F0200222F020021A60E27E012A64
:10182C001A680CBF22F0100242F010021A60227FDC
:10183C00012A1A680CBF42F0080222F008021A6052
:10184C00627F012A1A680CBF42F0040222F00402E3
:10185C001A60D4E90220216902430A436069616875
:10186C00024301390A4300200121DA61606284F8E5
:10187C00201038BD636A052243F40033636284F898
:10188C002020012038BDFFF7CFFD89E701207047EC
:10189C0090F82020013A012A06D9426A034642F404
:1018AC00802201205A627047404BD3F8002201205D
:1018BC00024330B4C3F80022D3F8002222F47C5245
:1018CC00C3F80022D3F800224C6A42EA0422C3F87F
:1018DC0000224A6902F01F04A040D3F81C4224EAFB
:1018EC000004C3F81C42CD69C443002D45D1D3F884
:1018FC000C522540C3F80C52D200CD688B8802F1F3
:10190C00804202F5C84243EA0543C2F840328D6872
:10191C000B8843EA0543C2F844328B69234A33BB34
:10192C00D2F804322340C2F804320B69C3B91F4BFE
:10193C00D3F814221440C3F814420B6A012B05D1BE
:10194C001A4AD2F81C320343C2F81C32174AD2F896
:10195C00003223F00103002030BCC2F80032704783
:10196C00124AD2F814320343C2F81432E5E7D2F823
:10197C0004320343C2F80432D7E7012DCDD1D3F89A
:10198C000C520543C3F80C52D2000D688B8802F13F
:10199C00804202F5C84243EA0543C2F840328D68E2
:1019AC008B8943EA0543C2F84432B6E70064004031
:1019BC0038B590F82030012B044605D0436A43F427
:1019CC0000234362012038BD0268022380F82030D6
:1019DC00136823F001031360FFF7D4FE054604E0FF
:1019EC00FFF7D0FE431B0A2B07D823685B6813F064
:1019FC000103F5D16362184638BD636A052243F4CE
:101A0C000033636284F82020DCE700BF30B490F828
:101A1C0020C005680CF1FF3CBCF1010FAC6834D858
:101A2C0014F0E05F38D0C4F30164032C42D00120E1
:101A3C00A04018608B68A3B3C8680343486843EAA6
:101A4C00C00304F1180000012B5005EB041C0B69BA
:101A5C00CCF884310B7D012B4FEA041105D1DCF855
:101A6C00843143F48073CCF884316B185168C3F81B
:101A7C008C111268C3F88821DCF8803143F0010323
:101A8C00002030BCCCF880317047436A43F480238B
:101A9C004362012030BC7047436A43F40013436235
:101AAC00F7E7CB68086843EA405004F118031B01C0
:101ABC00E850CAE7436A43F400034362E9E700BF16
:101ACC0090F820C00CF1FF3CBCF1010F65D870B54B
:101ADC00046841B9E568AE0708D1436A43F40013C2
:101AEC004362012070BD2569AD07F6D004EB011CE3
:101AFC004FEA011EDCF8B05105F004059560002D8D
:101B0C0051D0DCF8B051ED085560DCF8B05105F05F
:101B1C000205D560DCF8B451DCF8B46105F00F05B2
:101B2C0015617444DCF8B451C6F3072696612D0C8C
:101B3C00D4F8B86155611E7002687244D2F8B821AD
:101B4C00120A5A7002687244D2F8B821120C9A70B8
:101B5C0002687244D2F8B821120EDA70026872442C
:101B6C00D2F8BC211A7102687244D2F8BC21120A54
:101B7C005A7102687244D2F8BC21120C9A71026834
:101B8C007244D2F8BC21120EDA71026881B9D368A2
:101B9C0043F02003D360002070BD436A43F48023DC
:101BAC00436201207047DCF8B0516D0D1560ACE755
:101BBC00136943F020031361EDE700BF90F8202078
:101BCC00013A012A034605D9426A42F480220120D7
:101BDC005A627047026853690B4300205361704787
:101BEC00704700BF704700BF704700BF704700BF11
:101BFC00704700BF704700BF704700BF704700BF01
:101C0C00704700BF704700BF704700BF704700BFF0
:101C1C00704700BF2DE9F04F03685C69D3F804806E
:101C2C009F68D3F80CB0D3F810A0D3F8189014F028
:101C3C00010683B0054625D0FA0700F1A2804FF4C7
:101C4C0000564FF480400021FB0540F1AF802B681B
:101C5C004FF480729A60BA0500F1A3807B0503D41F
:101C6C003E0540F121810646F9030BD52B684FF454
:101C7C0080329A60BA0300F1F9807B0340F1EA806C
:101C8C0046F40046210702D51BF0100F73D16207F2
:101C9C0003D51BF0080F40F0A880A30704D52B68D0
:101CAC00DB689F0740F08B80600602D51AF0100F9E
:101CBC005BD1A10602D51AF0080F79D1E20603D543
:101CCC002B681B699B077ED1A70302D518F0100F58
:101CDC007DD1E00302D518F0080F7FD121043FD548
:101CEC0018F0040F2B6839D0E20504D519F0010F58
:101CFC0018BF46F00106A7057ED4610504F4006206
:101D0C0028D519F0040F25D046F00406002A00F05F
:101D1C00838019F070097FD0B9F1400F00F0CF80AB
:101D2C007DD8B9F1200F00F0B380B9F1300F40F03D
:101D3C0085809A69042122F070029A6146F020068F
:101D4C0059606B6A334328466B62FFF761FF03B03F
:101D5C00BDE8F08F12B119F07009DDD104225A6080
:101D6C00002EEED103B0BDE8F08F2B68102246F4A4
:101D7C0080661A619DE72B68102246F40076DA60C3
:101D8C0085E70122BE079A6043D4790767D43A07E6
:101D9C0040F187804FF440564FF4A0404FF48051EF
:101DAC0052E728460191FFF71DFF01990E465BE7AC
:101DBC002B6808221A612846FFF724FF7EE7284685
:101DCC00FFF71AFF70E72846FFF71AFF7CE72B682E
:101DDC0010225A602846FFF717FF7AE72B68082273
:101DEC005A602846FFF712FF78E72B680822DA6062
:101DFC002846FFF703FF50E719F0020F3FF47DAFC1
:101E0C00600546F0020604F400623FF57AAF1AB1A1
:101E1C007FE7FFF7E5FE12E704225A6091E7B9F17C
:101E2C00500F27D0B9F1600F2DD19A69042122F0FF
:101E3C0070029A6146F48076596082E7B9F1100F0E
:101E4C0021D19A69042122F070029A6146F00806A9
:101E5C00596076E738032ED546F4803612E74FF4F6
:101E6C0020564FF490404FF40061EDE62846FFF702
:101E7C00BBFE07E79A69042122F070029A6146F0D2
:101E8C00800659605DE79A6922F070029A6165E7F5
:101E9C009A69042122F070029A6146F0100659608A
:101EAC004FE7FFF7A3FECAE628460191FFF7A0FE15
:101EBC0001990E46D8E62846FFF79CFEE2E69A69A1
:101ECC00042122F070029A6146F04006596038E70E
:101EDC000749CA6803024FF6FF0003F4E0630240AF
:101EEC00134343F0BF6343F40033CB60704700BF30
:101EFC0000ED00E01B4BDB68C3F3022300B5C3F11C
:101F0C00070EBEF1040F03F1040C28BF4FF0040EB2
:101F1C00BCF1060F1CD9A3F1030C4FF0FF3303FAED
:101F2C000CF322EA03024FF0FF3303FA0EF321EA1B
:101F3C00030303FA0CF313431B010028DBB20ADB87
:101F4C0000F1604000F5614080F800335DF804FB5F
:101F5C0000229446E7E7044A00F00F00024413768F
:101F6C005DF804FB00ED00E0FCEC00E0002807DB72
:101F7C004109044A00F01F000123834042F821303C
:101F8C00704700BF00E100E00138B0F1807F01D361
:101F9C000120704710B44FF0E023064C58614FF00D
:101FAC00F00C84F823C00022072110469A6110BC63
:101FBC001961704700ED00E02DE9F04F00230C682B
:101FCC008E4E85B04FF0010B894603E00133102B88
:101FDC0000F098800BFA03F202EA0408A243F5D150
:101FEC00D9F8041001F003024FEA430C0325571EE5
:101FFC0005FA0CF5012F6FEA050540F28680032ADD
:10200C0040F0C080076802FA0CF23D402A4311F4FC
:10201C00403F0260DAD07A4D002203926A6C42F49F
:10202C0080426A646A6C02F480420392039A23F041
:10203C00030202F1804202F59C3203F0030795681B
:10204C00BF004FF00F0C0CFA07FC25EA0C05DFF86B
:10205C00B4C1604532D00CF5806C604500F09D80B9
:10206C00DFF8A4C1604500F09E80DFF8A0C1604598
:10207C0000F09F80DFF898C1604500F0A080DFF889
:10208C0094C1604500F0A780DFF88CC1604500F07A
:10209C00A880DFF888C1604500F09780DFF880C128
:1020AC00604500F0A480DFF87CC160450CBF4FF0A8
:1020BC00090C4FF00A0C0CFA07F73D439560B26817
:1020CC006FEA0805CF0254BF2A4048EA0202B26008
:1020DC00F2688F0254BF2A4048EA0202F26072682A
:1020EC008F0354BF2A4048EA020272603268C90367
:1020FC0003F1010354BF2A4048EA0202102B32605C
:10210C007FF468AF05B0BDE8F08F876807EA050E6D
:10211C00D9F80C7007FA0CF747EA0E078760476886
:10212C0027EA080EC1F300179F4047EA0E074760E5
:10213C00C76807EA050ED9F8087007FA0CF747EAE2
:10214C000E07022AC7607FF45DAFDF0800EB87073C
:10215C0001973F6A009703F0070ED9F810704FEA09
:10216C008E0E4FF00F0A07FA0EF70AFA0EFEDDF884
:10217C0000A02AEA0E0E47EA0E07DDF804E0CEF8BE
:10218C0020703FE7C76807EA050ED9F8087007FA10
:10219C000CF747EA0E07C76034E74FF0010C0CFA56
:1021AC0007F73D438AE74FF0020C0CFA07F73D4363
:1021BC0084E74FF0030C0CFA07F73D437EE74FF032
:1021CC00040C0CFA07F73D4378E74FF0070C0CFAB8
:1021DC0007F73D4372E74FF0050C0CFA07F73D4348
:1021EC006CE74FF0060C0CFA07F73D4366E74FF02F
:1021FC00080C0CFA07F73D4360E700BF003C0140B8
:10220C00003802400000024000080240000C02406E
:10221C00001002400014024000180240001C024052
:10222C00002002400024024030B583B0194B1A49FB
:10223C001A4D002201921A6C42F080521A641B6CE7
:10224C0003F0805301930122019B0A64FFF79AFA71
:10225C00044605E0FFF796FA001BB0F57A7F16D816
:10226C006B68DA03F6D50C4B0C4D01225A64FFF760
:10227C0089FA044605E0FFF785FA001BB0F57A7F72
:10228C0005D86B689B03F6D5002003B030BD032046
:10229C0003B030BD0038024000000E420070004018
:1022AC00002800F0D8812DE9F0410368DD0782B0E9
:1022BC0004462FD59D498A6802F00C02042A00F0CE
:1022CC00EC808A6802F00C02082A00F0E280636855
:1022DC00B3F5803F00F0EB80B3F5A02F00F07381D5
:1022EC00924D2A6822F480322A602A6822F48022D5
:1022FC002A60002B40F0E080FFF744FA064605E028
:10230C00FFF740FA801B642800F200812B689F03C2
:10231C00F6D423689D0728D5844A916811F00C0FD8
:10232C0000F09B80916801F00C01082900F091806D
:10233C00E368002B00F00C817D4B7C4E01221A606F
:10234C00FFF720FA054605E0FFF71CFA401B0228B0
:10235C0000F2DC8033689F07F6D53368226923F0DE
:10236C00F80343EAC203336023681A075CD45D07A1
:10237C003AD56E4A136C13F0805340F08880019369
:10238C00136C43F080531364136C03F0805301936C
:10239C00019B0125674E3368D80540F1A780A368DF
:1023AC00012B00F0B780052B00F01D815F4E326FC2
:1023BC0022F001023267326F22F004023267002BE6
:1023CC0040F0AD80FFF7DEF941F28838074605E0B2
:1023DC00FFF7D8F9C01B404500F29880336F9B077C
:1023EC00F6D4002D40F0F980A369CBB14F4DAA680B
:1023FC0002F00C02082A00F0BC80022B4C4B4FF070
:10240C0000021A6600F0F980FFF7BCF9044604E0FC
:10241C00FFF7B8F9001B022878D82B689B01F7D47A
:10242C00002002B0BDE8F0816369FBB1404B3F4E28
:10243C000122C3F8802EFFF7A5F9054604E0FFF74B
:10244C00A1F9401B022861D8736F9B07F7D523684D
:10245C008DE7526851023FF56BAF344A1268920710
:10246C0038D5E268012A35D00120DAE7304A2F4E00
:10247C00C2F8803EFFF786F9054604E0FFF782F9C3
:10248C00401B022842D8736F9F07F7D4DFE7002563
:10249C0080E74A6851027FF51AAF244A126892030A
:1024AC007FF538AF6268002A7FF434AFDCE71F4A4F
:1024BC00136843F480331360FFF764F91B4E054631
:1024CC0004E0FFF75FF9401B64281FD833689B03B7
:1024DC00F7D51EE7154920690A6822F0F80242EA8E
:1024EC00C0020A601A077FF542AF9DE7336843F4D8
:1024FC0080733360FFF746F907463368D9053FF51B
:10250C004EAFFFF73FF9C01B0228F6D9032002B0EB
:10251C00BDE8F081054A136F43F001031367FFF721
:10252C0031F9024F064641F288380AE00038024081
:10253C000000474200700040FFF724F9801B404523
:10254C00E4D83B6F9A07F7D5002D3FF44DAF44E02C
:10255C00424A434E1360FFF715F9054604E0FFF7B6
:10256C0011F9401B0228D1D833689907F7D4236896
:10257C00FBE6012B3FF478AF6B68E26903F4800152
:10258C0091427FF471AF226A03F03F0191427FF4D4
:10259C006BAF616A47F6C0721A40B2EB811F7FF4D1
:1025AC0063AFA26A520803F44031013AB1EB024F17
:1025BC007FF45AAFE26A03F07063B3EB026F14BF9F
:1025CC00012000202DE7264B1A6842F480221A6065
:1025DC001A6842F480321A606EE7214A136C23F0B9
:1025EC008053136400E71E4B1A6F42F004021A6703
:1025FC001A6F42F001021A6791E7FFF7C3F806461B
:10260C0005E0FFF7BFF8801B02283FF67FAF2B6871
:10261C009901F6D4D4E90731626A0B4343EA821379
:10262C00D4E90A21520843EA0163013A0B4943EA0F
:10263C00024301226B600A66FFF7A4F8084D0446BA
:10264C0005E0FFF79FF8001B02283FF65FAF2B68F1
:10265C009A01F6D5E4E60120704700BF000047421E
:10266C0000380240164908B58B6803F00C03042BA4
:10267C001BD0082B17D14A684B68496813F48003A8
:10268C0002F03F0213D10F48C1F38811A1FB0001E6
:10269C00FDF7A6FD0A4B5B68C3F3014301335B00F6
:1026AC00B0FBF3F008BD074808BD074808BD064855
:1026BC00C1F388110023A1FB0001FDF791FDE9E7AF
:1026CC00003802400024F400001BB700002800F082
:1026DC008780484A136803F00F038B422DE9F041C1
:1026EC000D46044609D2CBB21370136803F00F03E6
:1026FC008B4202D00120BDE8F0812368980714D5E5
:10270C00590704D53C498A6842F4E0528A601A079A
:10271C0004D539498A6842F460428A603649A06817
:10272C008A6822F0F00202438A60DF0721D56268D2
:10273C00012A57D0931E012B2F4B1B684DD999079B
:10274C00D8D52D4EB36823F003031343B360FFF7C2
:10275C0019F841F28838074604E0FFF713F8C01B5C
:10276C00404544D8B368626803F00C03B3EB820FA6
:10277C00F3D1204A136803F00F03AB4206D9EBB236
:10278C001370136803F00F03AB42B3D123685A07DD
:10279C0006D51949E0688A6822F4E05202438A603F
:1027AC001B0707D5144A2169936823F4604343EA55
:1027BC00C1039360FFF756FF0F4A104C9268104903
:1027CC00C2F303120346A25C0E48D34000680B60B0
:1027DC00FEF78EFF0020BDE8F0819801B1D489E7A7
:1027EC0001207047044B1B689E03AAD482E7032088
:1027FC0081E700BF003C024000380240A02A0008DC
:10280C000000002008000020F0B5114C114D0646C8
:10281C000F460FCC8BB0EC46ACE80F000FCCACE8FD
:10282C000F0094E803008CE8030069462846FFF784
:10283C002FF82846FFF7BCF802212846FFF7BEF90F
:10284C003B46324600212846FFF73AF90BB0F0BD63
:10285C00782A00085001002084460B460148614646
:10286C00FFF7D4B85001002008B5062000F02CF872
:10287C000120FEF70BFF1F2938B505460C4604D97D
:10288C00162303604FF0FF3038BDD0F8182112B179
:10289C0052F821304BB9284600F030F82246014658
:1028AC002846BDE8384000F017B8012B0AD0591C57
:1028BC0003D1162303600120E6E7002142F824101F
:1028CC00204698470020DFE7024B01461868FFF7C7
:1028DC00D2BF00BF0C00002038B5074D00230446C2
:1028EC00084611462B60FEF7C9FE431C02D12B682B
:1028FC0003B1236038BD00BFB4020020FEF7BCBE9C
:10290C00014B1868704700BF0C00002070B50D4DCE
:10291C000D4C641BA4100026A64209D10B4D0C4C87
:10292C0000F08CF8641BA4100026A64205D170BDE3
:10293C0055F8043B98470136EEE755F8043B9847A9
:10294C000136F2E7902B0008902B0008902B000822
:10295C00982B0008704770470A44914200F1FF33EE
:10296C0000D1704710B511F8014B03F8014F91429B
:10297C00F9D110BD024B13B1024800F005B87047F5
:10298C0000000000A1290008002301461A46184641
:10299C0000F014B838B5074D074C641BA4101CB9D3
:1029AC00BDE8384000F050B8013C55F82430984749
:1029BC00F5E700BF982B00089C2B00082DE9F04789
:1029CC00DFF86CA00646DAF8000098460F469146F0
:1029DC00FFF7C0FF174B1C680CB9174C1C606568DF
:1029EC00DAF800001F2D05DDFFF7B5FF4FF0FF30C3
:1029FC00BDE8F0879EB104EB85010122C1F88890F7
:102A0C00D4F88831AA401343C4F88831022EC1F897
:102A1C00088102BFD4F88C311343C4F88C316B1C81
:102A2C000235636044F82570FFF795FF0020DFE75F
:102A3C0030010020BC020020C0020020F8B500BF0D
:102A4C00F8BC08BC9E467047F8B500BFF8BC08BC83
:042A5C009E467047DB
:102A60000002000000000000000000000000000064
:102A7000080000000100000000000000000000004D
:102A80000000000000000000000000000D00000039
:102A90000000000001000000010000000000000034
:102AA00000000000000000000102030406070809FE
:102AB00008B10181B0B000840000000008B10181BC
:082AC000B0B00084000000002A
:102AC80054D7FF7F01000000A8DAFF7FB0A9028079
:102AD80034DBFF7FB0B0A88084DBFF7F01000000FB
:102AE80090DBFF7FB0B0AA80C4DBFF7FAE71B280FD
:102AF80090DCFF7F010000008CDCFF7FAB3F38805B
:102B0800ECDCFF7F01000000F4DCFF7FB0B0AA809E
:102B180030DDFF7F01000000DCDDFF7FAA0DB28001
:102B280058DEFF7FB0AF0880E8E0FF7F01000000BB
:102B3800ECE0FF7FAD3F02808CE3FF7F01000000E7
:102B480068E5FF7F008404807CE5FF7F01000000CA
:102B580078E5FF7FB0AD048044E8FF7FB0A803802C
:102B680068E8FF7F44FFFF7F6CE8FF7F48FFFF7F37
:102B780078E8FF7F0100000094FCFF7FB0AB0A807B
:082B8800DCFCFF7F01000000EE
:082B900081290008D1010008B1
:042B9800AD01000883
:102B9C000024F400010000001000000010000020D0
:102BAC00000000007C010020E40100204C02002009
:102BBC000000000000000000000000000000000009
:102BCC0000000000000000000000000000000000F9
:102BDC0000000000000000000000000000000000E9
:102BEC0000000000000000000000000000000000D9
:102BFC0000000000000000000000000000000000C9
:102C0C0000000000000000000000000000000000B8
:102C1C0000000000000000000000000000000000A8
:102C2C000000000000000000000000000000000098
:102C3C000000000000000000010000000000000087
:102C4C000E33CDAB34126DE6ECDE05000B0000004C
:102C5C000000000000000000000000000000000068
:102C6C000000000000000000000000000000000058
:102C7C000000000000000000000000000000000048
:102C8C000000000000000000000000000000000038
:102C9C000000000000000000000000000000000028
:102CAC000000000000000000000000000000000018
:102CBC000000000000000000000000000000000008
:042CCC00B80200202A
:04000005080016A930
:00000001FF
